:02000002B0004C
:1040000000400B004C530B00000006000C000502A2
:084010000401E50C00000000B2
:0440180048500B0001
:10401C0009480A49884208B505D0094A824202D0AB
:10402C00121A00F059FF0748074A0021121A00F033
:10403C0061FF014808BD00BF3CE60320B8520B00ED
:10404C00A8E60320A8E60320EDE7032070B5074E91
:10405C00074C00F091FBA41BA4080025AC4200D136
:10406C0070BD56F8043B98470135F7E764520B00D6
:10407C0088520B0000F013B808B500F023F8BDE827
:10408C00084000F031BB00F01DBA00F023BA0078F4
:10409C00B0FA80F04009704701230370704708B5EF
:1040AC000021132000F054FE0121022000F050FEEC
:1040BC000121032000F04CFEBDE808400121042042
:1040CC0000F046BE38B5132000F06CFE204C40F2D8
:1040DC0054539842206009DC0121022000F049FE73
:1040EC000021032000F045FE00210EE040F6AA233B
:1040FC0098424FF000014FF0020022DD00F039FE33
:10410C000021032000F035FE0121042000F031FED7
:10411C0000F03AFC2468002C054616DA2D2100F03C
:10412C007BFA61420A22284600F085FA284600F004
:10413C0076FA00F029FCBDE838404FF4165100F037
:10414C0017BC00F016FE0121CBE72146EAE700BFC1
:10415C00B4E6032010B5074B074A9A600024C3E964
:10416C000044032000F022F921460120BDE8104054
:10417C0000F024B9A8E603200000FFFF08B5024BAD
:10418C001B689B68019308BD6802030008B5024BCD
:10419C001B68DB68019308BD6802030008B5024B7D
:1041AC001B685B68019308BD2C02030008B5024B29
:1041BC001B689B68019308BD2C02030008B5024BD9
:1041CC001B68DB68019308BD2C02030008B5024B89
:1041DC001B681B69019308BD2C02030008B5024B38
:1041EC001B681B6B019308BD2C02030008B5024B26
:1041FC001B685B68019308BD1802030008B5024BED
:10420C001B685B69019308BD1802030008B5024BDB
:10421C001B685B6C019308BD4802030008B5024B98
:10422C001B685B69019308BD6402030008B5024B6F
:10423C001B68DB68019308BD3C02030008B5024B08
:10424C001B681B69019308BD3C02030008B5024BB7
:10425C001B685B69019308BD3C02030008B5024B67
:10426C001B689B69019308BD3C02030008B5024B17
:10427C001B68DB69019308BD3C02030008B5024BC7
:10428C001B681B6A019308BD3C02030008B5024B76
:10429C001B689B6A019308BD3C02030008B5024BE6
:1042AC001B681B6C019308BD3C02030008B5024B54
:1042BC001B681B6A019308BD2802030008B5024B5A
:1042CC001B685B6A019308BD2802030008B5024B0A
:1042DC001B689B6A019308BD2802030008B5024BBA
:1042EC001B68DB6A019308BD2802030008B5024B6A
:1042FC001B681B6B019308BD2802030008B5024B19
:10430C001B685B6B019308BD2802030008B5024BC8
:10431C001B681B6C019308BD2802030008B5024BF7
:10432C001B68DB69019308BD3002030008B5024B22
:10433C001B681B6A019308BD3002030008B5024BD1
:10434C001B681B68019308BD4C02030008B5024BA7
:10435C001B685B68019308BD4C02030008B5024B57
:10436C001B681B69019308BD4C02030008B5024B86
:10437C001B685B69019308BD4C02030008B5024B36
:10438C001B689B69019308BD4C02030008B5024BE6
:10439C001B68DB69019308BD4C02030008B5024B96
:1043AC001B681B6A019308BD4C02030008B5024B45
:1043BC001B685B68019308BD2002030008B5024B23
:1043CC001B68DB6A019308BD2002030008B5034B90
:1043DC001B68D3F88830019308BD0000200203004D
:1043EC0008B5034B1B68D3F89430019308BD00004B
:1043FC002002030008B5024B1B685B68019308BDE3
:10440C004002030008B5024B1B689B68019308BD72
:10441C004002030008B5024B1B68DB68019308BD22
:10442C004002030008B5024B1B681B69019308BDD1
:10443C004002030008B5024B1B685B69019308BD81
:10444C004002030008B5024B1B689B69019308BD31
:10445C004002030008B5024B1B68DB69019308BDE1
:10446C004002030008B5024B1B681B6A019308BD90
:10447C004002030008B5024B1B681B6B019308BD7F
:10448C004002030008B5024B1B685B6B019308BD2F
:10449C004002030008B5024B1B681B6C019308BD5E
:1044AC004002030008B5024B1B685B6C019308BD0E
:1044BC004002030008B5024B1B68DB6B019308BD7F
:1044CC004402030008B5024B1B681B68019308BD2E
:1044DC001C02030008B5024B1B685B68019308BD06
:1044EC001C02030008B5024B1B681B6C019308BD32
:1044FC001C02030008B5024B1B685B6C019308BDE2
:10450C001C020300002240681146FFF7ABBF0022DB
:10451C0040681146FFF7B6BF40680022FFF7AABFFC
:10452C004068002281F00101FFF794BF002340682E
:10453C001A461946FFF786BF002340681A461946EB
:10454C00FFF778BF002240681146FFF76BBF0022CF
:10455C0040681146FFF756BF406800220221FFF762
:10456C0059BF002340681A46FFF744BF024B032291
:10457C005A60024A1A607047B8E6032064500B0078
:10458C0010B5044608462170FFF7C8FE002363608F
:10459C00204610BD054B02221A60054B054A9A6055
:1045AC000020C3E90000FFF701BF00BFCCE60320E9
:1045BC00C0E603200000FFFF024800230360FFF762
:1045CC0025BE00BFD0E60320F8B506460D468F1871
:1045DC000024BD420CD0336815F8011B9B68304693
:1045EC009847031E01DB1C44F3E7002C08BF1C4654
:1045FC002046F8BD13B50446084659B1019100F0A8
:10460C00AFFC23680199DB680246204602B0BDE886
:10461C001040184702B010BD03689B68184738B5A6
:10462C000D210546FFF7F8FF0A2104462846FFF73F
:10463C00F3FF204438BD30B58BB00023012A8DF830
:10464C00243098BF0A2209AC0D46B1FBF2F101FBF4
:10465C00125303F0FF03092B94BF30333733DBB213
:10466C00AA4204F8013DEFD92146FFF7C3FF0BB076
:10467C0030BD0000014B024A1A607047D4E603209B
:10468C0098500B00024B1A68024B1A60704700BF1F
:10469C003CE60320D8E60320014B00229A607047C9
:1046AC00DCE60320014B1860704700BF40E6032096
:1046BC0008B50B4B43B100F067F903681B699847C9
:1046CC00002801DDAFF30080064B43B100F09CFBEA
:1046DC0003681B699847002801DDAFF3008008BD13
:1046EC00000000000000000008B5FFF7E1FFFFF735
:1046FC0085FD014B186008BD40E703200548064ABC
:10470C00064908B5121A00F0E7FB054B054A1A607A
:10471C0008BD00BF00F4032004F40320B4520B00C6
:10472C0000F403201E1C279A07B5002300931A4699
:10473C006FF07701FFF754FE03B05DF804FB000047
:10474C0007B543880A2B08D0502B0BD1094B1B689B
:10475C004BB103B05DF804EB1847FFF7E5FF03B06E
:10476C005DF804FB002300931A466FF07701FFF706
:10477C0037FEF4E7F0E6032010B512480021FFF7EE
:10478C00B9FE114B1A68114B9A42114B0CBF012206
:10479C0000221A7001D0FFF7B1FFFFF727FD044686
:1047AC0000F0B0FB0B4B13B12046AFF3008000219F
:1047BC000848FFF77FFEBDE8104007480021FFF7CF
:1047CC0005BE00BFB1460B0000F403201E1C279A47
:1047DC00ECE60320000000004D470B00704710B5BD
:1047EC0018210446FFF751FC204610BDF0B5037D9F
:1047FC00062B8DB00E4600F104074FF0000412D0CA
:10480C0000F1080515F8011D0A223046FFF713FFC9
:10481C00AF42044419D0002CF4D02E213046FFF7BF
:10482C00FBFE0444EEE72F236A4639460A208DF836
:10483C000040FFF7F3FC684600F092FB3368024639
:10484C00DB68694630469847044620460DB0F0BDFB
:10485C0010B5054B0446112240F8043B002100F032
:10486C0049FB204610BD00BFC0500B000346074A51
:10487C0010B543F8042B01F1100251F8044B43F826
:10488C00044B9142F9D10A781A7010BDC0500B003C
:10489C0010B59DF8084044EA032343EA024242EA79
:1048AC00016104234160037510BD000007B5064B80
:1048BC000360CB7800938B784A780978FFF7E8FF90
:1048CC0003B05DF804FB00BFC0500B00417470478F
:1048DC007047704708B50021007CFFF74FFD40EA98
:1048EC00E07008BD08B50121007CFFF747FD40EAE8
:1048FC00E07008BD08B5007CFFF738FD20EAE070D9
:10490C0008BD08B5007CFFF729FD20EAE07008BD62
:10491C0013B50446007C0191FFF728FD002801998E
:10492C0001DC607C20B1207CFFF730FD20EAE070D8
:10493C0002B010BD007CFFF731BD10B51421044648
:10494C00FFF7A3FB204610BD10B54FF47A73044655
:10495C0008460021C4E90113044B23600123207491
:10496C0063741146FFF7EAFC204610BDD4500B00CF
:10497C00007C0022FFF7EABC10B51422044600218B
:10498C0000F0B8FA204610BD10B50F4C88B003A843
:10499C00FFF7F2FF2178BFF35B8F11F001010FD10C
:1049AC0020460191FFF773FB019948B103AA074810
:1049BC00FFF7CAFF2046FFF76FFB054800F086FAA9
:1049CC00024808B010BD00BFF4E60320F8E603204F
:1049DC00DD480B0070474174704708B5007CFFF749
:1049EC0055FC20EAE07008BD08B5007CFFF726FCFA
:1049FC0020EAE07008BD08B5007CFFF72FFC40EA08
:104A0C00E07008BD08B5007CFFF720FC40EAE070C0
:104A1C0008BD007CFFF72ABC37B5457C04462DB198
:104A2C00207C03B0BDE83040FFF700BC007C019156
:104A3C00FFF72CFC00280199F2DC284603B030BDAE
:104A4C0010B514210446FFF720FB204610BD0000D2
:104A5C0010B54FF47A730446084611460022C4E997
:104A6C000123044B2360012320746374FFF716FCAD
:104A7C00204610BD04510B007047F8B5064615468C
:104A8C000C468F18BC4206D0336814F8011B9B6887
:104A9C0030469847F6E72846F8BD007C0022FFF721
:104AAC0005BC007C0021FFF709BC007C0021FFF74E
:104ABC000DBC007C0021FFF711BC007C0021FFF72E
:104ACC0015BC10B514210446FFF7DFFA204610BDC3
:104ADC0010B54FF47A73044608460021C4E901135B
:104AEC00034B236020741146FFF710FC204610BDC9
:104AFC0034510B00002240681146FFF793BC002292
:104B0C0040681146FFF7AEBC002240681146FFF723
:104B1C00B9BC40680022FFF7ADBC4068002281F0B0
:104B2C000101FFF797BC002340681A461946FFF7AE
:104B3C0089BC002340681A461946FFF77BBC00224B
:104B4C0040681146FFF75EBC406800220221FFF767
:104B5C0061BC002340681A46FFF74CBC024B042290
:104B6C005A60024A1A6070470CE703205C510B0034
:104B7C00002340681A46FFF73DBC40680022022122
:104B8C00FFF748BC002240681146FFF73BBC0022EF
:104B9C0040681146FFF746BC002340681A46194688
:104BAC00FFF748BC002340681A461946FFF74ABC79
:104BBC0040680021FFF76EBC40680021FFF772BC13
:104BCC004068002281F00101FFF744BC40680022DC
:104BDC00FFF750BC002240681146FFF753BC00227F
:104BEC0040681146FFF73EBC2DE9F04395B01446E2
:104BFC000D460746FFF72CFE00211C220DA8009144
:104C0C0000F078F940230C9320466B460CAA002147
:104C1C00FFF7BCFA044600284BD102460121686814
:104C2C00FFF700FC0221804622466868FFF7FAFB7A
:104C3C00009E81462146002E3BD0002939D1736855
:104C4C00022B03D00A2B11D0F669F4E7B8F1000F50
:104C5C00FAD0716906A8043107ADFFF727FE0FCD16
:104C6C003C1D0FC42B6823704146EDE7B9F1000FD2
:104C7C00EAD07469102201A800F03CF906238DF8E3
:104C8C00143001AD04F108031834186859682A4629
:104C9C0003C20833A3421546F7D101A906A807ADF4
:104CAC00FFF7E4FD0FCD3C1D0FC42B682370494664
:104CBC00CAE70098FFF762FA384615B0BDE8F083F2
:104CCC00024B034A1A6000225A60704714E7032013
:104CDC0098510B00232813B502D9002002B010BD47
:104CEC00A0F10B03022B1AD8174C2178BFF35B8F62
:104CFC0011F001010BD120460191FFF7C8F9019980
:104D0C0028B11248FFF73CFC2046FFF7C5F90F4BC2
:104D1C001878FFF70BFB0028DFD10120DEE7012814
:104D2C0009D800F0ADF80021007CFFF7E7FA80F01D
:104D3C000100C0B2D2E709380128EED800F064F8BF
:104D4C00007CFFF79BFAF2E71CE7032020E7032027
:104D5C00232838B504460D460AD8FF2908D0FFF79A
:104D6C00B9FF28B129462046BDE83840FFF71EBAE6
:104D7C0038BD38B504460D46FFF720FAFF2810D091
:104D8C00062804D84D2323FA00F0C30709D4204683
:104D9C00FFF7A0FF28B129462046BDE83840FFF7B1
:104DAC0015BA38BD0D2810B504469CBF0E34A4B2FC
:104DBC002046FFF78FFF50B103212046FFF7EEF995
:104DCC00032804D12046BDE81040FFF707BA0020A5
:104DDC0010BD704738B5044614252A46002100F052
:104DEC0089F825804025074925812846258200F031
:104DFC006BF804496060284600F066F8E0602046D5
:104E0C0038BD00BFCC510B0030B50E4D2978BFF327
:104E1C005B8F11F0010487B011D12846FFF737F9E9
:104E2C0068B101A8FFF7D6FF01AA21460648FFF793
:104E3C000FFE2846FFF730F9044800F047F8024807
:104E4C0007B030BD28E703202CE70320DF4D0B0013
:104E5C007047000038B52025142304460360856094
:104E6C0005610649284600F02FF804496060284681
:104E7C0000F02AF8E060204638BD00BFCC510B0092
:104E8C0030B50E4D2978BFF35B8F11F0010487B05C
:104E9C0011D12846FFF7FBF868B101A8FFF7DAFF3C
:104EAC0001AA21460648FFF713FE2846FFF7F4F83F
:104EBC00044800F00BF8024807B030BD44E703206B
:104ECC0048E703205D4E0B00FFF7DDB800230146D9
:104EDC001A46184600F04CB80A44914200F1FF33D0
:104EEC0000D1704710B511F8014B03F8014F9142F6
:104EFC00F9D110BD02440346934200D1704703F828
:104F0C00011BF9E738B5104B1D68AB6B0446B3B900
:104F1C001820FFF7D7FA0246A86320B90B4B0C48B0
:104F2C004221FFF7DFFA0B490B4BC0E900130B4B87
:104F3C0083600B23838100210120C2E90401AB6B48
:104F4C0000221C615A6138BD40E60320CD510B0094
:104F5C00E4510B000E33CDAB34126DE6ECDE0500E4
:104F6C00034613F8012B002AFBD1181A013870479D
:104F7C002DE9F843DFF8B8800646D8F800001F4644
:104F8C000D46914600F056F8254B1C6834B9254C5B
:104F9C001C60254B13B11B68C4F8883063681F2B49
:104FAC0007DDD8F8000000F047F84FF0FF30BDE8FF
:104FBC00F8834EB3D4F8880088B91C4B23B9D8F8C1
:104FCC00000000F038F8F0E74FF48470FFF77AFA3D
:104FDC000028F4D00023C0E94033C4F8880063688B
:104FEC0040F8239001229A4000EB8301D0F8003165
:104FFC001343C0F80031022EC1F8807002BFD0F804
:10500C0004311343C0F804316368D8F800005A1C0B
:10501C000233626044F8235000F00EF80020C6E71B
:10502C00E8E703205CE7032000000000D1440B00FC
:10503C00A4E6032070477047704700001D400B002A
:10504C0059400B0081400B0085400B000000000014
:10505C0000000000000000006F450B0065450B00D0
:10506C005B450B0051450B0045450B0039450B00CA
:10507C00BD4B0B00C54B0B002D450B0025450B0004
:10508C001B450B0011450B00F54B0B0061707000BC
:10509C0025592D256D2D25645425483A254D3A2545
:1050AC0053257A0061736374696D6500000000001C
:1050BC0000000000F9470B00E9470B00EB470B0021
:1050CC000000000000000000DF480B0047490B0007
:1050DC001D490B00D5450B000F490B00E1480B0097
:1050EC00F1480B0041490B0001490B00D9480B005A
:1050FC000000000000000000E1490B004D4A0B00CD
:10510C00254A0B00D5450B00F5490B00114A0B0045
:10511C00034A0B001F4A0B00E3490B00E7490B0045
:10512C000000000000000000854A0B00CF4A0B0075
:10513C00A74A0B00874A0B00AF4A0B00B74A0B007B
:10514C00BF4A0B00C74A0B00000000000000000023
:10515C005F4B0B00554B0B004B4B0B00014B0B00EB
:10516C003F4B0B00334B0B00BD4B0B00C54B0B00E7
:10517C00274B0B001F4B0B00154B0B000B4B0B0065
:10518C00F54B0B0000000000000000007D4B0B00F5
:10519C00874B0B00914B0B009B4B0B00A54B0B0053
:1051AC00B14B0B00BD4B0B00C54B0B00CD4B0B009B
:1051BC00D94B0B00E14B0B00EB4B0B00F54B0B00F1
:1051CC00005245454E54206D616C6C6F63207375B5
:1051DC0063636565646564002F6D6E742F776F7201
:1051EC006B73706163652F776F726B73706163653E
:1051FC002F4743432D31302D706970656C696E6596
:10520C002F6A656E6B696E732D4743432D31302DBC
:10521C00706970656C696E652D34385F3230323070
:10522C00313132345F313630363138303634312F1B
:10523C007372632F6E65776C69622F6E65776C691C
:10524C00622F6C6962632F7374646C69622F726174
:10525C006E642E630000000061410B0079450B0069
:10526C00A1450B00C5450B0081460B0091460B0078
:10527C00A5460B00694B0B00CD4C0B000000000049
:04528C00000000001E
:10529000040000001400000003000000474E550009
:1052A000BDEB94F7C48DE53697D046BF74674ED0FA
:0452B0006F70C3A9AF
:0452B40000000000F6
:1052B800B0500B0044E6032000000000000000008E
:1052C80000000000000000000000000000000000D6
:1052D80000000000000000000000000000000000C6
:1052E80000000000000000000000000000000000B6
:1052F80000000000000000000000000000000000A6
:105308000000000000000000000000000000000095
:0C5318000000000000000000ECE7032093
:10532400FFFFFFFF00000102030405060708090A46
:105334000B0C0D0E0F101112131415161718191A41
:085344001B1C1D1E1F20280088
:04534C007856341249
:04000003B000401CED
:00000001FF
